:100000000C94D5000C94FD000C94FD000C94FD00A4
:100010000C94FD000C94FD000C94FD000C94FD006C
:100020000C94FD000C94FD000C94D4080C9452091F
:100030000C94FD000C94FD000C94FD000C94FD004C
:100040000C94FD000C94FD000C94FD000C94FD003C
:100050000C94FD000C94FD000C94FD000C948A0897
:100060000C94FD000C94FD000C94FD000C94FD001C
:100070000C94FD000C94FD000C94FD000C94FD000C
:100080000C94FD000C94FD000C94FD000C94FD00FC
:100090000C94840B0C94FD000C94FD000C94FD005A
:1000A0000C94FD000C94FD000C94FD000000000079
:1000B000240027002A002D003000080B0002020255
:1000C00000000904000001020200000524001001E4
:1000D0000524010101042402060524060001070588
:1000E000810310004009040100020A000000070516
:1000F00002024000000705830240000004030904D7
:1001000012010002EF02014041233680000101028A
:10011000030141726475696E6F204C4C430041725B
:100120006475696E6F204C656F6E6172646F00005C
:10013000000000250028002B002E003100000000E8
:10014000002300260029002C002F000404040404CE
:10015000030405020202020403020202020606066A
:100160000606060404020202040404080201104008
:100170008040102040804080080204018040201010
:100180000201108010204040200000000200090FF2
:100190000000030401000C0000000000000000004B
:1001A0000000000000000000D20C11241FBECFEFA1
:1001B000DAE0DEBFCDBF11E0A0E0B1E0EAE8FFE1A8
:1001C00002C005900D92A63FB107D9F722E0A6EF35
:1001D000B1E001C01D92AA3EB207E1F710E0C5ED03
:1001E000D0E004C02197FE010E94930EC43DD107C8
:1001F000C9F70E94940D0C94C30F0C940000FC01ED
:1002000080918502882311F13FB7F89482E08093B2
:10021000E9002091F200822F90E01816190614F4DC
:1002200081E090E0882339F0289844E640938402E6
:100230004091F1004083222339F02091F2002111F6
:1002400003C02BE62093E8003FBF08958FEF9FEF98
:10025000089581508F3008F047C0E82FF0E0ED5C42
:10026000FE4F0C94930E50015401420148014C0181
:1002700074017401740157015D01610165016B0135
:1002800074016F01809180008F77809380000895C2
:10029000809180008F7DF9CF80918000877FF5CF9E
:1002A00084B58F7784BD089584B58F7DFBCF809111
:1002B00090008F77809390000895809190008F7DBB
:1002C000F9CF80919000877FF5CF8091C0008F7724
:1002D0008093C00008958091C0008F7DF9CF8091F8
:1002E000C200877F8093C2000895CF93DF93282FA9
:1002F00030E0F901E757FE4F8491F901E659FE4FCE
:10030000D491F901E55BFE4FC491CC23A1F081119A
:100310000E942901EC2FF0E0EE0FFF1FE35CFE4F7F
:10032000A591B491EC91ED2381E090E009F480E097
:10033000DF91CF91089580E090E0FACF1F93CF93A3
:10034000DF93282F30E0F901E757FE4F8491F90140
:10035000E659FE4FD491F901E55BFE4FC491CC23E1
:10036000A9F0162F81110E942901EC2FF0E0EE0F69
:10037000FF1FE15DFE4FA591B4918FB7F894EC910A
:10038000111108C0D095DE23DC938FBFDF91CF9190
:100390001F910895DE2BF8CF3FB7F894809180022B
:1003A00090918102A0918202B091830226B5A89B10
:1003B00005C02F3F19F00196A11DB11D3FBFBA2FF7
:1003C000A92F982F8827BC01CD01620F711D811DB7
:1003D000911D42E0660F771F881F991F4A95D1F73C
:1003E0000895CF92DF92EF92FF920E94CC016B01B1
:1003F0007C010E94CC016C197D098E099F09683E21
:10040000734081059105A8F3FF90EF90DF90CF90A6
:1004100008952FB7F89460917C0270917D028091CD
:100420007E0290917F022FBF08958093E900809112
:10043000F200882319F08AE38093E8000895409140
:100440007502509176022091730230917402421726
:100450005307B4F49091E8009570E1F39091E800AF
:1004600092FD19C08093F1008091750290917602FF
:1004700001968F739927892B19F48EEF8093E800EA
:100480008091750290917602019690937602809306
:10049000750281E0089580E00895DF92EF92FF9267
:1004A0000F931F93CF93DF93D82E8A01EB017B012B
:1004B000E40EF51ECE15DF0559F0D7FE12C0FE0181
:1004C00084910E941F0221968111F4CF0FEF1FEF3C
:1004D000C801DF91CF911F910F91FF90EF90DF90B6
:1004E00008958881EECF2FB7F89487708093E90044
:1004F0009091E800892F807295FF04C09091F200DE
:1005000080E4891B2FBF08957F928F929F92AF92B4
:10051000BF92CF92DF92EF92FF920F931F93CF93F0
:10052000DF93C82E8B017A0180918502811110C062
:100530008FEF9FEFDF91CF911F910F91FF90EF9081
:10054000DF90CF90BF90AF909F908F907F90089555
:100550008091790280FF05C08091E00082608093E5
:10056000E000CE2DDF2DD12C8AEFB82E8C2D877098
:10057000982E8C2D8072882E8C2D8074782E9AE384
:10058000A92E209719F4DD2009F44EC08C2D0E946D
:100590007302811106C0BA94BB2051F20E94F1018E
:1005A000F0CF8C171D0611F00CF08C2F9FB7F8942C
:1005B0009092E9002091E80025FD02C09FBFE1CFA5
:1005C000282F30E0C21BD30B882029F08150A0F0E7
:1005D0001092F100FBCFF801C7FC0AC0815050F027
:1005E00041914093F100FACF44914093F10031964C
:1005F0008150D0F7020F131FDD2021F0A092E800F8
:10060000D12CDCCF8091E80085FD07C0A092E800E6
:10061000DD24D394209791F2F3CF209779F67720B9
:1006200069F2A092E800CACF5D9884E680937802D0
:10063000C70180CF0F931F93CF93DF9300D000D0DB
:10064000CDB7DEB769837A838B839C8306ED12E096
:10065000F801838144E050E0BE016F5F7F4F8F5F00
:100660000E948402F80183818F5F0E9415020F901F
:100670000F900F900F90DF91CF911F910F910895E0
:10068000615030F02091F100FC0120830196F8CFF9
:10069000289884E680938402089580916B028111EA
:1006A0000DC082E08093670284E08093680210921C
:1006B0006A021092690281E080936B0287E692E001
:1006C00008950F931F93CF93DF931F92CDB7DEB79B
:1006D00082E0898342E450E06AEB70E080E80E94A7
:1006E0004D020E944D03DC0112960D911C910115E3
:1006F000110589F0D801ED91FC910280F381E02D84
:10070000BE016F5F7F4FC801099597FD04C0F801D6
:1007100000851185ECCF89810F90DF91CF911F91DA
:100720000F910895CF93DF93EC0180910B01882303
:1007300031F083E00E9484021816190634F081E03B
:1007400090E09B838A8380E090E0DF91CF910895D1
:10075000CF93DF931F92CDB7DEB76983DC01ED91B4
:10076000FC910280F381E02D41E050E0BE016F5F1B
:100770007F4F09950F90DF91CF910895682F86E8FC
:1007800092E00C94A80383E00C94150283E00E948D
:10079000730290E00895CF93DF931F92CDB7DEB739
:1007A000FC018485958597FD08C02FEF3FEF3587C5
:1007B00024870F90DF91CF910895CE0101960E947A
:1007C000FF00019719F4898190E0F3CF8FEF9FEF3D
:1007D000F0CF0F931F93CF93DF931F92CDB7DEB768
:1007E0008C01FC018485958597FF0BC0CE01019695
:1007F0000E94FF00019771F4898190E0F8019587CC
:100800008487F801848595850F90DF91CF911F91A2
:100810000F9108958FEF9FEFF1CFFC0184859585AF
:1008200097FD0BC09FB7F89482E08093E900809118
:10083000F2009FBF90E0019608959FB7F89482E080
:100840008093E9008091F2009FBF90E0089520918D
:100850001D02260F3327331F21323105ECF420917E
:100860004102FC0190E080E0243069F082E00895CC
:10087000A0911D022191AC0143505E4FA40FB52FF2
:10088000B11D2C930196861798F380911D02680F75
:1008900060931D0280E0089581E0089508958FEF30
:1008A0009FEF08958FEF9FEF08958091F60190E0FC
:1008B0009195819591090895CF93DF93CB01EA013A
:1008C000642F0E942704CE01DF91CF910895CF932A
:1008D000DF931F92CDB7DEB7698361E0CE01019649
:1008E0000E94270481E090E00F90DF91CF9108955E
:1008F00090E080E0089590E080E0089580E0089521
:100900000F931F93CF93DF93CDB7DEB7C456D109B2
:100910000FB6F894DEBF0FBECDBFFC01DB019C918A
:100920009E5F9C939E01295F3F4F8AE5D9011D92EE
:100930008A95E9F788E089838BE08A8322E02C831B
:1009400091E09D839E8339E0398764E06A879E87C2
:100950009F873A8B44E24B8B9C8BA0E0B1E0BE8B2F
:10096000AD8B09E010E0188F0F8B998F3B8F6C8F48
:100970002F8F98A353E059A387E08CA34DA39EA388
:10098000B8A7AFA3A1E4B0E0BAA7A9A786E08BA758
:100990004CA72DA79EA79FA789AB4AAB2BAB2CAB2F
:1009A0002DAB3FAB48AF59AF9AAF5BAF9CAF2DAF0C
:1009B0009EAF21963FAF219722964FAF2297239665
:1009C0005FAF239724962FAF249725966FAF259777
:1009D00026969FAF269727969FAF279728969FAF7B
:1009E00028972A963FAF2A9745E02B964FAF2B9733
:1009F0002D962FAF2D9760E470E02F967FAF6EAFEE
:100A00002F9763964FAF639785E264968FAF649795
:100A100065969FAF659766969FAF669767969FAFFF
:100A2000679768963FAF689769964FAF69976B96DF
:100A30002FAF6B976D967FAF6EAF6D97A1964FAF4F
:100A4000A197A2968FAFA297A3969FAFA397A496C4
:100A50009FAFA497A5965FAFA59792819B839B8735
:100A60009F5F9A8F9D8F83812C968FAF2C978F5F7E
:100A700080686A968FAF6A9744E650E0BE016F5F68
:100A80007F4F80E00E944D02CC59DF4F0FB6F894A3
:100A9000DEBF0FBECDBFDF91CF911F910F910895A3
:100AA00008950895089508958F929F92AF92BF92EE
:100AB000EF92FF921F93CF93DF93EC018A810E9404
:100AC00075017C0111E0892B09F410E08C818117FC
:100AD00091F10E9409028D809E80AF80B884AB01A5
:100AE000BC01481959096A097B098B8190E0B0E083
:100AF000A0E084179507A607B707E8F40E9409024B
:100B00006D837E838F8398871C83E881F981EF282A
:100B100071F40284F385E02DCE01DF91CF911F9116
:100B2000FF90EF90BF90AF909F908F9009940484B6
:100B3000F585E02DF1CFDF91CF911F91FF90EF90E0
:100B4000BF90AF909F908F900895CF93DF93EC016B
:100B50008A8190E0FC01E659FE4F2491855B9E4F0F
:100B6000FC0184918823C9F090E0880F991FFC0153
:100B7000E455FF4F45915491FC01E15DFE4FA59175
:100B8000B4919FB7F894FA013081822F8095832326
:100B90008083EC912E2B2C939FBF8A810E9475013C
:100BA00021E0892B09F420E02C830E9409026D8347
:100BB0007E838F839887DF91CF910895FC01019008
:100BC0000020E9F73197AF01481B590BBC0186E8BB
:100BD00092E00C9492038F929F92AF92BF920F93E8
:100BE0001F93CF93DF93CDB7DEB7A1970FB6F894DD
:100BF000DEBF0FBECDBF19A2423008F44AE08E011D
:100C00000F5D1F4F842E912CB12CA12CA5019401B6
:100C10000E94710EE62FB901CA01EA30F4F4E05DDA
:100C2000D801EE938D01232B242B252B79F790E00F
:100C300080E0109719F0CD010E94DE05A1960FB655
:100C4000F894DEBF0FBECDBFDF91CF911F910F9102
:100C5000BF90AF909F908F900895E95CE1CF2F9265
:100C60003F924F925F926F927F928F929F92AF923C
:100C7000BF92CF92DF92EF92FF920F931F93CF9389
:100C8000DF93CDB7DEB72A970FB6F894DEBF0FBE5D
:100C9000CDBF8C0178876F830E9409022B013C0134
:100CA00028EE33E040E050E00E94710E69837A83C1
:100CB0008B839C8329803A808CE3882E912CA12CF5
:100CC000B12CCA01B901A50194010E94710E6B01FA
:100CD0007C017E836D83C301B20120E63AEE40E0E1
:100CE00050E00E94710ECA01B901A50194010E9451
:100CF000710E4B015C017A876987C301B20120E85C
:100D00003EEE46E350E00E94710E29013A018BE568
:100D100091E00E94DE052AE04216510418F480E3B7
:100D20000E94BE034AE0C301B2010E94EB058AE3C0
:100D30000E94BE0389859A850A9718F480E30E9471
:100D4000BE034AE0C501B4010E94EB058AE30E949C
:100D5000BE032D813E812A30310518F480E30E94C4
:100D6000BE034AE0C701B6010E94EB058EE20E9475
:100D7000BE0334E62316310450F480E30E94BE0320
:100D80008AE02816310418F480E30E94BE034AE08A
:100D900069817A818B819C810E94EB058DE591E0D0
:100DA0000E94DE05C8010E94DE0580E691E00E94F7
:100DB000DE052F813885B901330F880B990B4AE086
:100DC0000E94EB0583E691E02A960FB6F894DEBF09
:100DD0000FBECDBFDF91CF911F910F91FF90EF908C
:100DE000DF90CF90BF90AF909F908F907F906F904B
:100DF0005F904F903F902F900C94DE05CF93DF9340
:100E0000EC016A8170E086E691E00E942F06798508
:100E1000706B6BE08A8590E0DF91CF910C941A03A0
:100E2000CF93DF93EC016A8170E08CE791E00E9440
:100E30002F067985706B6BE08A859FE7DF91CF91F4
:100E40000C941A03CF93DF93EC016A8170E081E97F
:100E500091E00E942F069C8179858A85706B9111A3
:100E600006C09FE76BE0DF91CF910C941A0390E0EE
:100E7000F9CFCF93DF93EC016A8170E086EA91E0CD
:100E80000E942F068E859F85A889B989892B8A2B78
:100E90008B2B51F08B89811107C07985706B6BE0CA
:100EA0008A859C850E941A031A8ADF91CF91089542
:100EB000CF93DF93EC016A8170E08EEB91E00E94AA
:100EC0002F068E859F85A889B989892B8A2B8B2B24
:100ED00061F081E08A8B1B8A0E9409026C8B7D8BFA
:100EE0008E8B9F8BDF91CF9108957985706B6BE02E
:100EF0008A859C85DF91CF910C941A038F929F92E3
:100F0000AF92BF92EF92FF920F931F93CF93DF9315
:100F1000EC018A810E9475017C0111E0892B09F4A2
:100F200010E08C81811731F10E9409028D809E8032
:100F3000AF80B884AB01BC01481959096A097B0923
:100F40008B8190E0B0E0A0E084179507A607B70773
:100F500088F40E9409026D837E838F8398871C83A7
:100F6000E881F981EF2809F03FC00284F385E02D84
:100F7000CE0109958A898823D9F18B89811138C0DE
:100F80008E859F85A889B989892B8A2B8B2B81F126
:100F90000E9409020C891D892E893F89601B710BF3
:100FA000820B930B0E851F8528893989601771077D
:100FB00082079307E8F081E08B8B6A8170E085ED12
:100FC00091E00E942F067985706B6BE08B859D8583
:100FD000DF91CF911F910F91FF90EF90BF90AF9055
:100FE0009F908F900C941A030484F585E02DC0CF58
:100FF000DF91CF911F910F91FF90EF90BF90AF9035
:101000009F908F9008950E94BE0F1F93CF93DF9300
:1010100085ED8093BC008091F9019091FA01A09137
:10102000FB01B091FC010796A11DB11D23E0B6950F
:10103000A795979587952A95D1F72091BC0024FD17
:1010400003C01092410252C04091F9015091FA013F
:101050006091FB017091FC01452B462B472B69F3F6
:101060000097A105B10541F02AE22A95F1F700C0E9
:101070000197A109B109E1CF8091F801C1E0C093C6
:10108000F701882399F1D091B8001091BA008091AE
:10109000BC008A7B8093BC0060E082E00E949E01DD
:1010A00060E083E00E949E0110924102C0934302DF
:1010B0001092420261E082E00E949E0161E083E0C2
:1010C0000E949E018091B9008E7F8093B90080912B
:1010D000B9008D7F8093B90088E48093B80085E4DF
:1010E0008093BC001093BA00D093B800DF91CF91E9
:1010F0001F91089584E0E1EFF1E0DB0101900D9292
:101100008A95E1F784E008950C94350F0C94350F1F
:101110000C94350F1F920F920FB60F9211242F933C
:101120003F938F939F93AF93BF9380917C02909155
:101130007D02A0917E02B0917F0230917B0223E07C
:10114000230F2D3758F50196A11DB11D20937B0269
:1011500080937C0290937D02A0937E02B0937F02E5
:101160008091800290918102A0918202B0918302CD
:101170000196A11DB11D8093800290938102A093DE
:101180008202B0938302BF91AF919F918F913F9163
:101190002F910F900FBE0F901F90189526E8230FE8
:1011A0000296A11DB11DD2CF1F920F920FB60F92C2
:1011B00011242F933F934F935F936F937F938F935C
:1011C0009F93AF93BF93CF93EF93FF93C091E100B1
:1011D0008091E100837F8093E100C3FF0FC01092F4
:1011E000E90081E08093EB001092EC0082E38093B1
:1011F000ED001092850288E08093F000C2FF1BC0D2
:1012000083E00E94150280917802882341F080914A
:101210007802815080937802811101C05D9A80919B
:101220008402882341F0809184028150809384025B
:10123000811101C0289AC4FF23C08091E2008E7EF4
:1012400081608093E2008091E1008F7E8093E100D5
:10125000809179028E7E806180937902FF91EF9177
:10126000CF91BF91AF919F918F917F916F915F913E
:101270004F913F912F910F900FBE0F901F90189597
:10128000C0FFECCF8091E2008E7E80618093E2000F
:101290008091E1008E7E8093E100809179028E7EC4
:1012A0008160DACF1F920F920FB60F921124CF9266
:1012B000DF92EF92FF920F931F932F933F934F93E1
:1012C0005F936F937F938F939F93AF93BF93EF93AE
:1012D000FF93CF93DF93CDB7DEB76C97DEBFCDBF63
:1012E0001092E9008091E80083FF25C068E0CE01FC
:1012F00045960E94400382EF8093E8008D8987FF26
:1013000039C09091E80090FFFCCF982F907609F0BB
:1013100034C19E894F89588D2F89F88C911131C025
:10132000803861F580917A028093F1001092F1008B
:101330008EEF8093E8006C960FB6F894DEBF0FBE78
:10134000CDBFDF91CF91FF91EF91BF91AF919F9171
:101350008F917F916F915F914F913F912F911F914D
:101360000F91FF90EF90DF90CF900F900FBE0F90F6
:101370001F9018959EEF9093E800C7CF1092F10050
:10138000D5CF913059F48111D3CF4130510581F639
:1013900080917A028D7F80937A02CACF933049F48C
:1013A0008111C6CF4130510519F680917A028260D1
:1013B000F2CF953041F48091E80080FFFCCF2068A7
:1013C0002093E300B5CF963009F0A9C00B8D1C8D9A
:1013D00022E01092E9001092760210927502F21249
:1013E0002EC010927402109273020E9461031F8239
:1013F00099E09983FA8291E09E8390EA98879AEF28
:1014000099872091750230917602275F3F4F3C8388
:101410002B838D831092E900109276021092750250
:10142000109374020093730249E050E0BE016F5FB5
:101430007F4F80E00E944D020E94610379CF10939C
:101440007402009373020E944D03DC0112960D9109
:101450001C910115110509F451C1D801ED91FC91C0
:101460000480F581E02DBE016B5E7F4FC8010995B8
:10147000009709F03EC1F80100851185EACFF3E03D
:10148000FF120EC08F89882309F440C0823061F4B6
:1014900040E860E18EE191E00E949F0C811148CF0D
:1014A00081E28093EB0047CF813029F440E86BE084
:1014B00082E191E0F1CF833099F70E944D03DC0186
:1014C0001296ED90FC908E010F5F1F4F6801E114A2
:1014D000F10479F0D701ED91FC910680F781E02DC0
:1014E000B801C7010995080F111DF701E084F184C7
:1014F000EECFD8011C92F60101900020E9F7319758
:10150000BF016C197D0940E0C601C6CF6CEF70E0E9
:10151000FB01449150E080E80E944D0209CF9730D2
:1015200009F4BECF983021F481E08093F10000CF20
:10153000993009F0FDCE837009F0B2CFEDE0F1E013
:1015400081E031E096E32191222371F08093E9005C
:101550003093EB00DF0111972C912093EC009093D6
:10156000ED008F5F873079F78EE78093EA00109265
:10157000EA008F8980938502DBCE8B8D9C8D109243
:10158000E900109276021092750290937402809393
:101590007302898D811192C08E899D89913A49F497
:1015A000813209F07DCF47E050E064E071E080E0F7
:1015B000B3CF913209F074CF833269F48F89988D5B
:1015C000B0E0A0E08093000190930101A09302019C
:1015D000B0930301ADCE803269F48091E80082FFC0
:1015E000FCCF67E084E091E00E9440038BEF8093A2
:1015F000E8009ECE823209F09BCE8F8980930B014A
:10160000EEEFFFE7859194918B3F9C4D51F1E0E027
:10161000F8E08091040190910501A0910601B0913C
:101620000701803B9440A105B105F1F480910B01C5
:1016300080FD1AC0EE3F8AE0F80789F587E797E753
:1016400091838083809160008093770288E19BE0A2
:101650000FB6F894A895809360000FBE9093600039
:1016600067CEEEEFFAE0D5CF80819181873797473B
:1016700009F05ECEA895809160008861809360003B
:101680008091770280936000EE3F2AE0F20789F0B4
:101690008091FE0A9091FF0A9183808349CE8081D8
:1016A00091818737980751F29093FF0A8093FE0A41
:1016B000C5CF1092FF0A1092FE0A3ACE0E944D0347
:1016C000DC0112960D911C910115110509F4E8CE6B
:1016D000D801ED91FC910190F081E02DBE016B5E8F
:1016E0007F4FC8010995811123CEF801008511852E
:1016F000EBCF181619060CF41BCED2CEF1E0FF1278
:10170000BECE60E071E004CF1F920F920FB60F9231
:1017100011242F933F934F935F936F937F938F93F6
:101720009F93AF93BF93EF93FF938091B900887F0E
:10173000803609F44AC0F0F5883209F4A5C018F5DE
:10174000803109F499C0B8F4882309F4F5C08830D1
:1017500009F492C0FF91EF91BF91AF919F918F914A
:101760007F916F915F914F913F912F910F900FBE9D
:101770000F901F901895883109F486C0803251F778
:101780008093400214C0803409F49BC040F480333D
:10179000B9F38833F9F68093400285ECAEC080350A
:1017A00009F483C0883509F494C0883499F60E94FE
:1017B0000508D0CF883909F48AC038F5883729F070
:1017C00050F4883611F0803729F683E08093410287
:1017D00010923F0255C0883809F479C0803919F059
:1017E000803809F0B7CF80913F02803208F06FC097
:1017F000E0913F0281E08E0F80933F028091BB0019
:10180000F0E0E15EFD4F80833BC0803B39F0D0F4D7
:10181000803A09F477C0883A09F09CCF84E080933D
:10182000410210921E0210921D02F0E0E0E00995C4
:1018300080911D0281110FC081E080931D021092E2
:10184000FD0109C0803C09F4A8CF883C09F4A5CF6C
:10185000883B09F07FCFE0911E0281E08E0F8093DC
:101860001E02F0E0E350FE4F80818093BB00909118
:101870001E0280911D0229C0809166028093BB00E8
:1018800085EC8093BC0066CF9091650280916402E4
:10189000981758F5E091650281E08E0F80936502FC
:1018A000F0E0EC5BFD4F8081E9CFE091650281E0E3
:1018B0008E0F809365028091BB00F0E0EC5BFD4FE2
:1018C000808390916502809164029817C8F285E840
:1018D000D8CFE091650281E08E0F80936502809100
:1018E000BB00F0E0EC5BFD4F8083809143028111EF
:1018F0005ECF81E08093420284EA8093BC00109224
:10190000410228CF85EC8093BC0010924102809167
:101910003F02803230F4E0913F02F0E0E15EFD4FA3
:10192000108260913F0270E08FE192E0F0E0E0E031
:10193000099510923F020ECF1092400238CFEF92DD
:10194000FF920F931F93CF93DF93F82E192FE62E5C
:10195000042F81E0860F880F0E941F0283E00E94FF
:101960001F02CF2DD12FEC0EFD2EF11CCE15DF0561
:10197000B9F007FF13C0FE0184910E941F02182FC7
:1019800080E00E941F02812321968111EFCFDF9119
:10199000CF911F910F91FF90EF9008958881EDCF27
:1019A00081E0F5CFCF93DF931092890210928802E5
:1019B00088EE93E0A0E0B0E080938A0290938B02DF
:1019C000A0938C02B0938D028DE191E090938702F9
:1019D000809386028FEF9FEF909393028093920201
:1019E00082E08093DA028093DB0280EE92E09093B3
:1019F000DD028093DC021092DF021092DE028FE2A1
:101A000091E09093D7028093D60280E88093E00221
:101A100081E88093E1020E944D03FC018181909155
:101A2000DA02482F490F5527551F483051059CF5BC
:101A3000A281B381109709F526ED32E0338322832A
:101A400020812093D8028093D9028091DB02820FFB
:101A500080832091DC02A22FB091DD028A2F821BAD
:101A60008917C8F481813D91C82FD0E0C45FDE4F53
:101A700038838F5F8183F2CFD90118962D913C91E5
:101A8000199721153105C1F726ED32E019963C93DF
:101A90002E931897D5CF88E190E00E94990EFC0113
:101AA0008DE08283D5E0D383C1E0C48315821682A2
:101AB000178210868DE491E09183808311868EE1F8
:101AC00082878FE1838782E384878CE3858788EE32
:101AD00093E0A0E0B0E086879787A08BB18B128A55
:101AE000138A148A158A168A178AF093E302E09300
:101AF000E2028BE090E00E94990EFC0184E0828378
:101B0000D383C48315821682178210868BE391E0FB
:101B100091838083C1878DE18287F093E502E09312
:101B2000E402DF91CF910895789484B5826084BDFA
:101B300084B5816084BD85B5826085BD85B58160D1
:101B400085BD80916E00816080936E00109281004F
:101B5000809181008260809381008091810081600A
:101B600080938100809180008160809380008091CB
:101B700091008260809391008091910081608093B8
:101B80009100809190008160809390008091C100CD
:101B900084608093C1008091C10082608093C10005
:101BA0008091C10081608093C1008091C3008160F9
:101BB0008093C3008091C00082608093C0008091B8
:101BC000C20081608093C20080917A00846080931B
:101BD0007A0080917A00826080937A0080917A0006
:101BE000816080937A0080917A00806880937A0087
:101BF0001092850210927A02109279028091D70099
:101C000081608093D70080EA8093D80089B5806195
:101C100089BD89B5826089BD09B400FEFDCF0E94EF
:101C2000F1018091D8008F7C80618093D8008091F1
:101C3000E000807F8093E0008091E1008E7E8093C1
:101C4000E1008DE08093E200559A209A8091E202B3
:101C50009091E302DC01ED91FC910480F581E02D8F
:101C600009958091E4029091E502DC01ED91FC91EF
:101C70000480F581E02D09958091E2029091E302C4
:101C8000DC01ED91FC910084F185E02D09958091B6
:101C9000E4029091E502DC01ED91FC910084F18574
:101CA000E02D0995C0E0D0E08091E2029091E3023E
:101CB000DC01ED91FC910680F781E02D0995809182
:101CC000E4029091E502DC01ED91FC910680F78140
:101CD000E02D09950E94F101209731F30E94000048
:101CE000E3CFA1E21A2EAA1BBB1BFD010DC0AA1F48
:101CF000BB1FEE1FFF1FA217B307E407F50720F075
:101D0000A21BB30BE40BF50B661F771F881F991FEF
:101D10001A9469F760957095809590959B01AC0138
:101D2000BD01CF010895EE0FFF1F0590F491E02D46
:101D300009940F931F93CF93DF938230910510F492
:101D400082E090E0E091E802F091E90230E020E0EA
:101D5000B0E0A0E0309799F42115310509F44AC0AC
:101D6000281B390B24303105D8F58A819B816115F8
:101D7000710589F1FB0193838283FE0111C04081CB
:101D800051810281138148175907E0F0481759071C
:101D900099F4109761F012960C93129713961C9376
:101DA0003296CF01DF91CF911F910F91089500934B
:101DB000E8021093E902F4CF2115310551F04217E2
:101DC000530738F0A901DB019A01BD01DF01F801D9
:101DD000C1CFEF01F9CF9093E9028093E802CDCF14
:101DE000FE01E20FF31F8193919322503109398351
:101DF0002883D7CF2091E6023091E702232B41F4CC
:101E000020911501309116013093E7022093E602EC
:101E100020911301309114012115310541F42DB7A2
:101E20003EB74091170150911801241B350BE091EA
:101E3000E602F091E702E217F307A0F42E1B3F0B36
:101E40002817390778F0AC014E5F5F4F241735072C
:101E500048F04E0F5F1F5093E7024093E6028193D4
:101E600091939FCFF0E0E0E09CCFCF93DF9300977A
:101E7000E9F0FC01329713821282A091E802B0913E
:101E8000E902ED0130E020E01097A1F420813181DA
:101E9000820F931F2091E6023091E702281739073D
:101EA00009F061C0F093E702E093E602DF91CF9181
:101EB0000895EA01CE17DF07E8F54A815B819E01AC
:101EC00041155105B1F7E901FB83EA834991599125
:101ED000C40FD51FEC17FD0761F480819181029634
:101EE000840F951FE90199838883828193819B8365
:101EF0008A83F0E0E0E012968D919C911397009711
:101F0000B9F52D913C911197CD010296820F931F47
:101F10002091E6023091E7022817390739F6309709
:101F200051F51092E9021092E802B093E702A093F3
:101F3000E602BCCFD383C28340815181840F951FB9
:101F4000C817D90761F44E5F5F4F88819981480FA8
:101F5000591F518340838A819B81938382832115FA
:101F6000310509F0B0CFF093E902E093E8029ECF8B
:101F7000FD01DC01C0CF13821282D7CF81E090E057
:0A1F8000F8940C94C30FF894FFCFFF
:101F8A00FFFFFFFF00E100000000000000C18081A8
:101F9A000000000000EA02800000000000A803928E
:101FAA0003C603C3030D04CB03E903000000007E4C
:101FBA000480047B047A080000000052058608A504
:101FCA0005540522071007FE060000000053058885
:101FDA0008A5057E075005580739075B005D2000F4
:101FEA003A20000D0A004C617463682042757474CB
:101FFA006F6E2052656C6561736564004C61746331
:10200A006820427574746F6E2050726573736564CC
:10201A00004C6174636820427574746F6E20537447
:10202A00617274757000436F6E74726F6C204275C2
:10203A0074746F6E2052656C656173656400436FDA
:10204A006E74726F6C20427574746F6E2050726574
:10205A007373656400436F6E74726F6C204275749B
:10206A00746F6E204C6F6E6720507265737365646F
:06207A00004D494449003D
:00000001FF
